:030000000208995A
:0C089900787FE4F6D8FD75810C020800A1
:1008850060DAF266B6BEE0FE000001020408102040
:04089500408000009F
:10080000E4F50BF50AF509F508F590750B1C750A6A
:10081000DE75097A75A0E0E5A054E0F50CC4135428
:1008200007FF90088F93F590EF90088593F50812D5
:090830000839E4F508F59080DBBD
:1008390075A00E85088012086175A00D85098012C2
:10084900086175A00B850A8012086175A007850BE0
:08085900807F057E00020865A6
:040861007F057E0091
:10086500E4FDFCC3ED9FEC9E5015E4FBFA0BBB00C9
:0F087500010AEB64794A70F50DBD00010C80E4B7
:010884002251
:00000001FF
