:030000000208C132
:0C08C100787FE4F6D8FD75810E02080077
:1008AD000060DAF266B6BEE0FE0000010204081038
:0408BD002040800057
:10080000E4F50BF50AF509F508F59075A0E075A07B
:10081000E0E5A054E0F50EC4135407700D750BFC11
:10082000750A8E75098EF5088009750B1C750ADE30
:1008300075097AE5A054E0F50EC4135407FF90083B
:10084000B793F590EF9008AD93F508120855E4F5CD
:0508500008F59080B9DD
:1008550053A0F043A00E85088012088953A0F075B7
:10086500A00D85098012088953A0F075A00B850A93
:100875008012088953A0F075A007850B807F057E3F
:040885000002088DD8
:040889007F057E0069
:10088D00E4FDFCC3ED9FEC9E5015E4FBFA0BBB00A1
:0F089D00010AEB64794A70F50DBD00010C80E48F
:0108AC002229
:00000001FF
