:030000000208FEF5
:0C08FE00787FE4F6D8FD75810D0208003B
:0A09140060DAF266B6BEE0FE0000F5
:10080000E4F50BF50AF509F508F59012090A75905B
:10081000FFAF90EF606C24FE602324FE602A24FC6E
:10082000603124F8603824F0603F24E06046243FC3
:10083000705F750860C2A6C2A5D2A780407508DAAD
:10084000C2A7C2A5D2A680357508F2C2A5D2A7D28A
:10085000A6802A750866C2A7C2A6D2A580337508ED
:10086000B6C2A6D2A7D2A580147508BEC2A7D2A6CA
:10087000D2A580097508E0D2A7D2A6D2A512090A8E
:10088000800FC2A7C2A6C2A5750BFC750A8E75099A
:0D0890008E7590FF12089DE4F50802080B1C
:0A090A00750B1C750ADE75097A22D0
:10089D00E4F50D53A0F043A00E8508801208DA533D
:1008AD00A0F043A00D8509801208DA53A0F043A0F3
:1008BD000B850A801208DA53A0F043A007850B8040
:0C08CD001208DA050DE50DC3941C40C7AD
:0108D90022FC
:0408DA007F057E0018
:1008DE00E4FDFCC3ED9FEC9E5015E4FBFA0BBB0050
:0F08EE00010AEB64794A70F50DBD00010C80E43E
:0108FD0022D8
:00000001FF
